:0300000002011CDE
:0C011C00787FE4F6D8FD758120020128F0
:1000F700D288D2A8438920758DFD758BFDD29ED2FB
:060107008ED2AFD2B2223D
:04010D007F017E00F0
:0B011100EF1FAC0670011E4C70F622C0
:03000300020006F2
:10000600C0E0C0D075D000C000C002C003C004C0AC
:0500160005C006C00753
:10001B007508007FBC7E0212011130B2030200E4AE
:10002B007BE87A0320B213D3EB9400EA9400400AE6
:10003B0012010DEB1B70ED1A80EA20B2030200D8FF
:10004B007A017BF430B213D3EB9400EA9400400AAC
:10005B0012010DEB1B70ED1A80EAE4FD750F007AAF
:10006B00007B3C20B213D3EB9400EA9400400A12BD
:10007B00010DEB1B70ED1A80EA7A017BF430B22094
:10008B00D3EB9400EA940040177F0A7E0012011113
:10009B000508EB1B70011AE508D3941E40DF80396D
:1000AB0074092DF8C000E6C313D000F6E508C3941D
:1000BB0008400874092DF8E64480F6750800050F12
:1000CB00E50FC3940840980DED6404708FE50CF4B4
:0900DB00B50B04D2008002C20042
:1000E400D007D006D005D004D003D002D000D0D0A1
:0300F400D0E03227
:0B0128007F647E00120111B2A680F57A
:00000001FF
