:10000E0006010107010101020307010101020203BA
:10001E0002020701060301010301010601030501A6
:10002E000106010201020205010603010204010399
:10003E000301010401020102020301040102010194
:10004E00020101020107010304010104010207017B
:10005E000207010406010107010101020307010164
:10006E00010202030202070106F2F3F5F5F6F7F8B4
:10007E00F9F9FAFAFBFBFCFCFCFDFDFDFDFEFEFEB4
:10008E00FEFEFEFEFF42C117B6D0D1B621E18CD8DE
:10009E0068E95B8FEE446BB4F42D4777A2B6DAFABB
:0100AE00163B
:03000300DFFE22FB
:10010E00AE07AF061EEF600C7FC81200037FC81249
:05011E00000380EE2249
:0200EC00AD075E
:1000EE00E4FCED75F006A4FFECC39FE5F06480F828
:0F00FE0074809850087F3212010E0C80E5C28C7E
:01010D0022CF
:03000B00020123CC
:0D012300C28CB29585098C850A8AD28C3277
:0D01300085098C850A8AD28CAF080200EC8C
:1000AF00438901D2AFD2A9E4FBEBC3946450F8EBC0
:1000BF0090000F9375F007A4FFEB90000E932F1491
:1000CF00FA90007793F509EA90009393F50AEB9075
:0D00DF00001093F5080B0B0B12013080CCC4
:0300000002013DBD
:0C013D00787FE4F6D8FD75810A0200AF5F
:00000001FF
