:10020D001521C0F9A4B0999282F880908883C6A177
:10021D00868E8CC8AFBFFF015000013700056731D6
:10022D003233340005512A2A2A2A000A5670617386
:10023D0073776F72643A00076073746174653A0086
:10024D000638434C4F534500053E4F50454E000672
:10025D00434552524F520007494E65772050570083
:10026E0079EFC201E4FF89A0E5A0540FFD640F6091
:10027E0022D2018F08ED24F9601724FC600F24FEB2
:10028E00600714700E7E03800A7E0280067E018057
:10029E0002E4FEE925E004F90FBF04CA300109EEBD
:0A02AE0025E025E02508FF227FFF70
:0102B8002223
:0802B900D2928F807F147E00B9
:1002C100D3EF9400EE940040147D6F7C00ED1D701F
:0D02D100011CED4C70F7EF1F70E61E80E37E
:0102DE0022FD
:0A035D00EFD3940040031F80F72245
:0C034500C291C2901202B9C292D2912261
:0C035100C291D2901202B9C292D2912245
:060304007B007A00795134
:10030A0012031DFF600C120351740129F9E43AFA31
:03031A0080EE2250
:0802DF007D067F027C007E0019
:1002E700AB07AA06EB64014A7005ED24808009EB91
:0D02F70064024A7007ED24C0FF1203452287
:0F0336007F381203457F0C1203457F6C0203458D
:0A0367007F011203457F02020345E7
:10000300120336120367E4FDFC7F01FE1202E77B55
:10001300007A00795612030AE4FDFC7F02FE120205
:10002300E77B007A00796012030A7D097F011202DF
:10003300E31203047D067C007F027E00020163124B
:10004300026E8F6CE56CF460F67F0A7E001202C1CB
:1000530012026EBFFFFA7F0A7E001202C1E56C2412
:10006300F6501324FE700302014B14605624FE70F5
:10007300030200FC80C9C3E5506480948450C0E54A
:100083006C2430FF74512550F8A607E537B40107F7
:1000930074672550F8A607E53770127D06FC7F02CA
:1000A300FE1202E77B007A00793812030A05507DBD
:1000B300097C007F017E001202E77B007A00795100
:1000C30002016C75542A75532A75522A75512A7D7B
:1000D300097C007F017E001202E71203041202DF93
:1000E3007B007A00793812030A300003020042E4ED
:1000F300F550D294D295020042E5676551702FE521
:100103006865527029E56965537023E56AB5541E25
:10011300C2941202DF7B007A00793E12030AE4F5EF
:1001230036C2957FC8FE1202C1D295020042C29523
:100133000536C3E536648094834002D2001202DFA1
:100143007B007A00794380210537D3E537648094B7
:10015300814003E4F537E53770157D06FC7F02FE29
:100163001202E77B007A00793812030A0200421276
:0E01730002DF7B007A00794912030A02004283
:0300000002018179
:0C018100787FE4F6D8FD75816C0201C89F
:10031D00BB010689828A83E0225002E722BBFE02DE
:09032D00E32289828A83E4932211
:10018D00020003E493A3F8E493A34003F68001F285
:10019D0008DFF48029E493A3F85407240CC8C33373
:1001AD00C4540F4420C8834004F456800146F6DF42
:1001BD00E4800B010204081020408090020DE47EC3
:1001CD00019360BCA3FF543F30E509541FFEE49337
:1001DD00A360010ECF54C025E060A840B8E493A3FE
:1001ED00FAE493A3F8E493A3C8C582C8CAC583CA29
:1001FD00F0A3C8C582C8CAC583CADFE9DEE780BEE1
:01026D000090
:00000001FF
