:100282001525C0F9A4B0999282F880908883C6A1FE
:10029200868E8CC8AFBFFF0B3A7E306D79335B5FC1
:1002A200707F7B0101241701233B012132012200CF
:1001F20079EFC200E4FF89A0E5A0540FFD640F600F
:1002020022D2008F08ED24F9601724FC600F24FE2F
:10021200600714700E7E03800A7E0280067E0180D3
:1002220002E4FEE925E004F90FBF04CA300009EE3A
:0A02320025E025E02508FF227FFFEC
:01023C00229F
:0902DE0012033BD2A17F027E0055
:1002E700D3EF9400EE940040147D6F7C00ED1D70F9
:0D02F700011CED4C70F7EF1F70E61E80E358
:0103040022D6
:0A034C00EFD3940040031F80F72256
:10033B007E08C2A0EF3392A2EF25E0FFD2A0DEF23F
:01034B00228F
:07032700243AF8E6FD7C001A
:0D032E00C2A112033BAF0512033BD2A12276
:10023D00C2A17F0912033BE4FF1202DEC2A17F0AB5
:10024D0012033B7F051202DEC2A17F0B12033B7F1F
:10025D00071202DEC2A17F0C12033B7F011202DEE8
:10026D00C2A17F0F12033BE4FF12033BD2A17F0219
:05027D007E000202E713
:10016F00E52175F00A120305AFF0743A2FF8E6FD9A
:10017F007C007F0112032EE52175F00A1203057F23
:10018F0002120327E544FD7F0312032EE52375F0CA
:10019F000A120305AFF0743A2FF8E6FD7C007F04D6
:1001AF0012032EE52375F00A1203057F05120327AC
:1001BF00E544FD7F0612032EE52475F00A120305B0
:1001CF00AFF0743A2FF8E6FD7C007F0712032EE59F
:1001DF002475F00A120305243AF8E6FD7C007F0827
:0301EF0002032EDA
:1002B3000521D3E521648094BB401FE4F521052388
:1002C300D3E523648094BB4011E4F5230524D3E5EF
:0B02D30024648094974003E4F524228B
:1000030012023D12016F7B327F147E001202E7E57C
:100013002370047F0180027F00E52470047E018049
:10002300027E00EE5F605AD3EB648094AD4002C25F
:1000330095D3EB648094AD5009EB648094A840029F
:10004300D295D3EB648094A85009EB648094A340C9
:1000530002C295D3EB648094A35009EB6480949E11
:100063004002D295D3EB6480949E5009EB64809454
:10007300994002C295D3EB648094995056D29580EF
:1000830052E521643B7038D3EB648094AD4002C2E7
:1000930095D3EB648094AD5009EB648094A840023F
:1000A300D295D3EB648094A85009EB648094A34069
:1000B30002C295D3EB648094A35018D2958014D3D5
:1000C300EB648094AD4002C295D3EB648094AD5051
:1000D30002D2951BEB600302000B1202B30200066F
:030000000200E318
:0C00E300787FE4F6D8FD75814402012A04
:10030500C2D530F707B2D563F0FF05F030E70CB280
:10031500D5F4048463F0FF05F080018430D502F440
:020325000422B0
:1000EF00020003E493A3F8E493A34003F68001F224
:1000FF0008DFF48029E493A3F85407240CC8C33312
:10010F00C4540F4420C8834004F456800146F6DFE0
:10011F00E4800B0102040810204080900282E47EEC
:10012F00019360BCA3FF543F30E509541FFEE493D5
:10013F00A360010ECF54C025E060A840B8E493A39C
:10014F00FAE493A3F8E493A3C8C582C8CAC583CAC7
:10015F00F0A3C8C582C8CAC583CADFE9DEE780BE7F
:0102B200004B
:00000001FF
