:10000000020003787FE4F6D8FD75814802004A02B9
:10001000008FE493A3F8E493A34003F68001F20871
:10002000DFF48029E493A3F85407240CC8C333C435
:10003000540F4420C8834004F456800146F6DFE4A0
:10004000800B01020408102040809001E0E47E0152
:100050009360BCA3FF543F30E509541FFEE493A313
:1000600060010ECF54C025E060A840B8E493A3FA25
:10007000E493A3F8E493A3C8C582C8CAC583CAF0B1
:10008000A3C8C582C8CAC583CADFE9DEE780BE7FD0
:10009000907E0112026A120248E4FDFF1202CE7B3A
:1000A000007A007921E4FDFC12021A7FE87E031237
:1000B000026A1201A2E53F75F00A842430F52EE5AC
:1000C0003F75F00A84E5F02430F52F7530DFE54206
:1000D00075F00A842430F537E54275F00A84E5F0BE
:1000E0002430F537E4FDFF1202CE7B007A00792A36
:1000F000E4FDFC12021A7D01E4FF1202CE7B007ABD
:10010000007933E4FDFC12021A7FB87E0B12026AFA
:1001100080A079EFC200E4FF89A0E5A0540FFD6440
:100120000F6022D2008F1DED24F9601724FC600FB0
:1001300024FE600714700E7E03800A7E0280067E15
:10014000018002E4FEE925E004F90FBF04CA300093
:1001500009EE25E025E0251DFF227FFF22E4F5447E
:1001600075450120A007AF450545EF70F6C20112A5
:10017000030912030912030930A002D201754501D7
:1001800030A007AF450545EF70F6E54625E0F5469A
:10019000A201E43342460544E544C3940840C1AF9C
:1001A00046221202A120A0377F0120A006AE070F31
:1001B000EE70F77F0130A006AE070FEE70F7120168
:1001C0005D8F4212015D7540008F4112015D8F3FCE
:1001D00012015D753D008F3E12015D8F43D2A0225A
:1001E000092152656164792E2E2E00092A54656D0D
:1001F0003A30302043000A3348756D3A303025528A
:1002000048001508C0F9A4B0999282F880908883BC
:10021000C6A1868E8CC8AFBFFF008B448A45894635
:100220008C478D48AB44AA45A946120288FF601747
:100230001202E4AF48AE4712026A74012546F54641
:10024000E43545F54580DD22E4FDFC7F381202B837
:100250001202B80D7F011202B87F801202B87F0C23
:100260001202B87F287E0002026AD3EF9400EE9457
:100270000040147D6F7C00ED1D70011CED4C70F78B
:10028000EF1F70E61E80E322BB010689828A83E0AD
:10029000225002E722BBFE02E32289828A83E49392
:1002A00022C2A07F147E0012026AD2A01203091299
:1002B0000309120309020309C290C291C2928F80FE
:1002C000D292C292ED64014C70031202F322ED70DF
:1002D00006EF2480FE8004EF24C0FEAF067D017C83
:1002E000000202B8D290C291C2928F80D292C29282
:1002F0000202F3C290D291D2922087FDC29222EFE5
:10030000D3940040031F80F7227F017E01DEFEDFD1
:02031000FA22CF
:00000001FF
