:10000000020016020108D2A3C2A2220200A2D2A0BC
:10001000C2A122020159787FE4F6D8FD758123023E
:10002000005D0201F0E493A3F8E493A34003F6809B
:1000300001F208DFF48029E493A3F85407240CC8E4
:10004000C333C4540F4420C8834004F4568001468F
:10005000F6DFE4800B010204081020408090020AC1
:10006000E47E019360BCA3FF543F30E509541FFEBA
:10007000E493A360010ECF54C025E060A840B8E42B
:1000800093A3FAE493A3F8E493A3C8C582C8CAC5AE
:1000900083CAF0A3C8C582C8CAC583CADFE9DEE740
:1000A00080BEC0E0C0F0C083C082C0D075D000C0A8
:1000B00000C001C002C003C004C005C006C007756F
:1000C0008CF8758A2F051DE51DD3951F4008751DF9
:1000D000001200068003120222051EE51ED39520A1
:1000E0004008751E0012000E8003120222D007D0B5
:1000F00006D005D004D003D002D001D000D0D0D09B
:1001000082D083D0F0D0E032C0E0C0F0C083C082A3
:10011000C0D075D000C000C001C002C003C004C080
:1001200005C006C0077F0A7E001201D220B20F056B
:1001300023E523D394014003752300852322D007B0
:10014000D006D005D004D003D002D001D000D0D04A
:10015000D082D083D0F0D0E032C0E0C0F0C083C005
:1001600082C0D075D000C000C001C002C003C0046E
:10017000C005C006C0077F0A7E001201D220B30C62
:100180000521E521D394044003752100D007D00652
:10019000D005D004D003D002D001D000D0D0D0827E
:1001A000D083D0F0D0E03220A40A20A507751F0428
:1001B0007520042230A40730A504E4F5232230A4DE
:1001C0000720A5047523032220A40630A503752368
:1001D0000422D3EF9400EE940040147D6F7C00ED78
:1001E0001D70011CED4C70F7EF1F70E61E80E322BE
:1001F0007F907E011201D212022B758951D28ED2CC
:100200008CD2A9D2AF1201A780FB1508C0F9A4B007
:10021000999282F880908883C6A1868E8CC8AFBFE1
:10022000FF00D2A3D2A2D2A0D2A122D288D28AD257
:04023000A8D2AA2284
:00000001FF
