:1001B6001521C0F9A4B0999282F880908883C6A1CF
:0F01C600868E8CC8AFBFFF0337000000013600E4
:10010A0079EFC200E4FF89A0E5A0540FFD640F60F7
:10011A0022D2008F08ED24F9601724FC600F24FE18
:10012A00600714700E7E03800A7E0280067E0180BC
:10013A0002E4FEE925E004F90FBF04CA300009EE23
:0A014A0025E025E02508FF227FFFD5
:010154002288
:0B018D00853A37E4F538F5397F02FEB3
:10019800D3EF9400EE940040147D6F7C00ED1D7049
:0D01A800011CED4C70F7EF1F70E61E80E3A8
:0101B5002227
:0A01E600EFD3940040031F80F722BE
:1001D600758901758CFF758ACED28CD2A9D2AF22D1
:10009A001201D6E4F53A7537FF120190053AE53AAE
:1000AA00C394FF40F1753AFF12018D153AE53AD330
:1000BA00940050F4E4F53A853A37853A38E4120167
:1000CA0093053AE53AC394FF40ED753AFF12018D64
:1000DA00153AE53AD3940050F4E4F53A853A37856F
:1000EA003A38E4120193053AE53AC394FF40ED75B4
:1000FA003AFFE53AD39400409A12018D153A80F2FC
:03000B000201559A
:10015500C0E0C0D0758CFF758ACE0536E536C395EF
:10016500375004D2A08002C2A0E536C395385004AA
:10017500D2A18002C2A1E536C395395004D2A2802E
:0801850002C2A2D0D0D0E0328A
:0300000002000EED
:0C000E00787FE4F6D8FD75813A020055B9
:10001A0002009AE493A3F8E493A34003F68001F262
:10002A0008DFF48029E493A3F85407240CC8C333E7
:10003A00C4540F4420C8834004F456800146F6DFB6
:10004A00E4800B01020408102040809001B6E47E8F
:10005A00019360BCA3FF543F30E509541FFEE493AB
:10006A00A360010ECF54C025E060A840B8E493A372
:10007A00FAE493A3F8E493A3C8C582C8CAC583CA9D
:10008A00F0A3C8C582C8CAC583CADFE9DEE780BE55
:0101D5000029
:00000001FF
