:100000000204560204E2D200C2CF3202026FD2AD25
:0100100022CD
:10001300020533D290C291C2928F80D292C29202D1
:0200230006D7FE
:10002B00020006EC4D6011E8497017ED33EC330418
:10003B00600DE4FCFFFEFD22E933E8330470F802A7
:10004B0001DE1201A958046009E4CC248150062872
:10005B0050090201E82840030201E5C0E0EB4A70B9
:10006B0044B98006D0E0FB0201D4EF4E701CBD807A
:10007B0008EBFFEAFEE9FD80EBE98DF0A4FEE5F06D
:10008B00020117E9CDF9EAFEEBFFEF89F0A4FCE5DD
:10009B00F0CE89F0A42EFFE435F0CD89F0A42DFE2F
:1000AB00E435F08067EF4E7005BD80D780C3EF8BD2
:1000BB00F0A4ACF0EE8BF0A42CFCE435F0F8EF8A56
:1000CB00F0A42CE5F038FCE433CB8DF0A42CFCE54C
:1000DB00F03BF8EE8AF0A42CFCE5F038F8E433CFD3
:1000EB0089F0A42CFCE5F038CF3400CE89F0A42F96
:1000FB00FFE5F03EFEE433C98DF0A42EFEE5F039AA
:10010B00CD8AF0A42FFFE5F03EFEE43DFD33D0E0B9
:10011B00FB50070BBB000F0201E8EC2CFCEF33FF8D
:10012B00EE33FEED33FD0201C075F020800E75F04D
:10013B0010800575F0087D007E007F003392D5306E
:10014B00D503120261EC334010EF33FFEE33FEEDBB
:10015B0033FDEC33FCD5F0ED22E5F0247EA2D51374
:10016B00CC92E7CDCEFF22EDD2E7CD33EC3392D557
:10017B0024814006E4FFFEFDFC22FCE4CFCECDCC77
:10018B0024E0501174FF80EDC3CC13CCCD13CDCE36
:10019B0013CECF13CF0470F030D5DE020261E9D25B
:1001AB00E7C933E833F892D5EDD2E7CD33EC33FC26
:1001BB005002B2D522EC30E7100FBF000C0EBE0080
:1001CB00080DBD00040BEB6014A2D5EB13FCED92F4
:1001DB00E7FD2274FFFCFDFEFF22E480F8A2D5743C
:1001EB00FF13FC7D80E480EFBB010689828A83E0EC
:1001FB00225002E722BBFE02E32289828A83E49328
:10020B0022BC000BBE0029EF8DF084FFADF022E481
:10021B00CCF875F008EF2FFFEE33FEEC33FCEE9DC0
:10022B00EC984005FCEE9DFE0FD5F0E9E4CEFD22E7
:10023B00EDF8F5F0EE8420D21CFEADF075F008EF72
:10024B002FFFED33FD4007985006D5F0F222C398EF
:10025B00FD0FD5F0EA22C3E49FFFE49EFEE49DFD73
:10026B00E49CFC22C0E0C0F0C083C082C0D075D03B
:10027B0000C000C001C002C003C004C005C006C05E
:10028B0007758CF8758A2F053FE53FD3940440031F
:10029B00753F00053CE53CC394674003753C000586
:1002AB003BE53B7002053AC394F4E53A94014006F2
:1002BB00753A00753B00053EE53E7002053DC39463
:1002CB00FCE53D94004006753D00753E00E53FC3DF
:1002DB00951D500512066B8003120707E53C700352
:1002EB001203B5E53B453A7003120581D007D006E2
:1002FB00D005D004D003D002D001D000D0D0D08212
:10030B00D083D0F0D0E032C2A7C2A6D2A612071972
:10031B00C2A630A7FDD2CA20A7FDC2CAAFCDEFFE41
:10032B00ADCC7C00E42DF52CEC3EF52BE4F5CCF5B7
:10033B00CDAC2BAD2C1201397B967A43798B783C63
:10034B0012002E1201728E2D8F2EC3E52C94E8E530
:10035B002B94035005751F038003851E1F30000C63
:10036B0075282D75272D75252DC20022AE2DAF2E8C
:10037B007C007D6412020CEF2430F525AE2DAF2EE0
:10038B007C007D6412020C7E007F0ACFCDCFCECCD9
:10039B00CE12020CEF2430F527AE2DAF2E7C007D54
:1003AB000A12020CED2430F52822E4FDFF1206C1DF
:1003BB00E51F14601514601A14601F1460242404C4
:1003CB00702C7BFF7A077922801E7BFF7A07792DB1
:1003DB0080167BFF7A077938800E7BFF7A0779438B
:1003EB0080067BFF7A07794EE4FDFC1205C7E51DFD
:1003FB0014601514601A14601F1460242404702CEC
:10040B007BFF7A07795A801E7BFF7A07796180160A
:10041B007BFF7A077968800E7BFF7A07796F8006FE
:10042B007BFF7A077976E4FDFC1205C77D01E4FFBB
:10043B001206C17B007A007931E4FDFC1205C77B03
:10044B00007A007922E4FDFC0205C7787FE4F6D838
:10045B00FD75814402049D020623E493A3F8E49303
:10046B00A34003F68001F208DFF48029E493A3F89C
:10047B005407240CC8C333C4540F4420C88340040E
:10048B00F456800146F6DFE4800B010204081020CD
:10049B0040809005F5E47E019360BCA3FF543F3090
:1004AB00E509541FFEE493A360010ECF54C025E071
:1004BB0060A840B8E493A3FAE493A3F8E493A3C829
:1004CB00C582C8CAC583CAF0A3C8C582C8CAC583BA
:1004DB00CADFE9DEE780BEC0E0C0F0C083C082C0E7
:1004EB00D075D000C000C001C002C003C004C0055D
:1004FB00C006C0077F0A7E0012068D20B20F051FB3
:10050B00E51FD394044003751F00851F1ED007D031
:10051B0006D005D004D003D002D001D000D0D0D06B
:10052B0082D083D0F0D0E032C0E0C0F0C083C08274
:10053B00C0D075D000C000C001C002C003C004C051
:10054B0005C006C0077F0A7E0012068D20B30C057E
:10055B001DE51DD394044003751D00D007D006D0B4
:10056B0005D004D003D002D001D000D0D0D082D09F
:10057B0083D0F0D0E032858B30E4F58BAC301201B8
:10058B003E7B337A337917784212002E1201728F29
:10059B002FE52F75F06484FF75F00A842430F53154
:1005AB00EF75F00A84E5F02430F533E52F75F06430
:1005BB0084E5F075F00A842430F534228B408A41AF
:1005CB0089428C438D44AB40AA41A9421201F3FFEF
:1005DB006017120016AF44AE4312068D740125420C
:1005EB00F542E43541F54180DD221508C0F9A4B090
:1005FB00999282F880908883C6A1868E8CC8AFBFF3
:10060B00FF0931302E30306B6D2F4800092220202E
:10061B0020302E30306D00007F907E0112068D123F
:10062B00064912071012000E758951D28ED28CD248
:10063B00A9D2AFE53E453D70FA12031280F5E4FDF9
:10064B00FC7F381206AB1206AB0D7F011206AB7F97
:10065B00801206AB7F0C1206AB7F287E0002068D44
:10066B00E51F146010146010146010146010240443
:10067B00700F0207070206F50206FE0206E31206DA
:10068B00EC22D3EF9400EE940040147D6F7C00EDD0
:10069B001D70011CED4C70F7EF1F70E61E80E322FE
:1006AB00C290C291C2928F80D292C292ED64014CE1
:1006BB0070031206D722ED7006EF2480FE8004EF44
:1006CB0024C0FEAF067D017C000206ABC290D29126
:1006DB00D2922087FDC29222D2A3C2A2C2A0D2A1E3
:1006EB0022C2A3D2A2D2A0C2A122C2A3D2A2C2A0D2
:1006FB00D2A122D2A3C2A2D2A0C2A122D2A3D2A2A1
:10070B00D2A0D2A122D288D28AD2A8D2AA227F0189
:10071B007E01DEFEDFFA224449523A73686F702085
:10072B0020004449523A666F7277202000444952A8
:10073B003A6261636B2020004449523A6C656674DF
:10074B002020004449523A72696768742020005394
:10075B0046543A5020005346543A4C2000534654CA
:10076B003A4D20005346543A4820005346543A46DB
:02077B0020005C
:00000001FF
