:030000000200CB30
:0C00CB00787FE4F6D8FD758147020087BD
:1000AB00438902E4F58CF58AD2AFD2A9D28CD288DF
:1000BB00D2A8438920758DFD758BFDD29ED28E22E1
:03000B00020006EA
:0300060005473279
:0300030002000EEA
:09000E00C0E0C0D075D000C000B4
:10001700B2A6300029E547C39435500AE547C39493
:1000270020400375210074222521F8A64775470053
:100037000521E521B4210CD2027521008005754701
:0300470000D200E4
:07004A00D000D0D0D0E0325D
:100051007F01E4FEE4FD74222FF8E6D39405400805
:1000610074432EF8E64480F6EDC39407500C7443B4
:100071002EF8C000E6C313D000F60F0DBD08D70E51
:05008100BE04D1D20114
:010086002257
:100087001200AB3002FD120051C2023001F5E4FF4D
:1000970074432FF8E6F5993099FDC2990FBF04F024
:0400A700C20180DF33
:00000001FF
