:100194001521C0F9A4B0999282F880908883C6A1F1
:1001A400868E8CC8AFBFFF0B367E306D79335B5FB4
:0401B400707F7B01DC
:1000DD0079EFC200E4FF89A0E5A0540FFD640F6025
:1000ED0022D2008F08ED24F9601724FC600F24FE46
:1000FD00600714700E7E03800A7E0280067E0180EA
:10010D0002E4FEE925E004F90FBF04CA300009EE50
:0A011D0025E025E02508FF227FFF02
:0101270022B5
:09016D001201B9D2A17F027E004B
:10017600D3EF9400EE940040147D6F7C00ED1D706B
:0D018600011CED4C70F7EF1F70E61E80E3CA
:010193002249
:0A01D700EFD3940040031F80F722CD
:1001B9007E08C2A0EF3392A2EF25E0FFD2A0DEF2C3
:0101C9002213
:0D01CA00C2A11201B9AF051201B9D2A122E4
:10012800C2A17F091201B9E4FF12016DC2A17F0AC1
:100138001201B97F0512016DC2A17F0B1201B97FAF
:100148000712016DC2A17F0C1201B97F0112016D66
:10015800C2A17F0F1201B9E4FF1201B9D2A17F0237
:050168007E000201769B
:10008F00120128E536FD7C007F081201CAE537FD15
:10009F007F071201CAE536FD7F061201CAE538FD5A
:1000AF007F051201CAE536FD7F041201CAE53AFD4C
:1000BF007F031201CAE537FD7F021201CAE538FD41
:0E00CF007F011201CA7FE87E0312017680FED7
:03000000020003F8
:0C000300787FE4F6D8FD75814002004AC9
:10000F0002008FE493A3F8E493A34003F68001F278
:10001F0008DFF48029E493A3F85407240CC8C333F2
:10002F00C4540F4420C8834004F456800146F6DFC1
:10003F00E4800B0102040810204080900194E47EBC
:10004F00019360BCA3FF543F30E509541FFEE493B6
:10005F00A360010ECF54C025E060A840B8E493A37D
:10006F00FAE493A3F8E493A3C8C582C8CAC583CAA8
:10007F00F0A3C8C582C8CAC583CADFE9DEE780BE60
:0101B8000046
:00000001FF
