:100709007F907E011206EB120795758951D28ED220
:0D0719008CD2A9D2AF751D0312067F80F8A7
:03000B0002049A52
:10049A00C0E0C0F0C083C082C0D075D000C000C028
:1004AA0001C002C003C004C005C006C007758CF8AD
:1004BA00758A2F053FE53FD394044003753F00E555
:1004CA003FC3951D50051206C9800312078CD00739
:1004DA00D006D005D004D003D002D001D000D0D0AD
:0904EA00D082D083D0F0D0E032C2
:0C075200C290D291D2922087FDC2922268
:10072600C290C291C2928F80D292C292ED64014C65
:06073600700312075222BD
:1006A700E4FDFC7F381207261207260D7F0112078B
:1006B700267F801207267F0C1207267F287E0002DE
:0206C70006EB40
:0F001600D290C291C2928F80D292C292020752B0
:100623008B408A4189428C438D44AB40AA41A94205
:100633001201F3FF6017120016AF44AE431206EB2C
:0E06430074012542F542E43541F54180DD2287
:10073C00ED7006EF2480FE8004EF24C0FEAF067D32
:06074C00017C00020726FB
:09076800D2A3C2A2C2A0D2A122B8
:09077100C2A3D2A2D2A0C2A122AF
:09077A00C2A3D2A2C2A0D2A122A6
:09078300D2A3C2A2D2A0C2A1229D
:09078C00D2A3D2A2D2A0D2A12274
:1006C900E51F1460101460101460101460102404E5
:1006D900700F02078C02077A020783020768120764
:0206E90071227C
:09079500D288D28AD2A8D2AA228D
:030003000204F301
:1004F300C0E0C0F0C083C082C0D075D000C000C0CF
:1005030001C002C003C004C005C006C0077F0A7E45
:10051300001206EB20B20F051FE51FD39401400321
:10052300751F00851F1ED007D006D005D004D00349
:10053300D002D001D000D0D0D082D083D0F0D0E090
:010543003285
:030013000205449F
:10054400C0E0C0F0C083C082C0D075D000C000C07D
:1005540001C002C003C004C005C006C0077F0A7EF4
:10056400001206EB20B30C051DE51DD394044003D3
:10057400751D00D007D006D005D004D003D002D01A
:0E05840001D000D0D0D082D083D0F0D0E032B1
:100651001508C0F9A4B0999282F880908883C6A148
:07066100868E8CC8AFBFFFBD
:1005920079EFC200E4FF89A0E5A0540FFD640F606B
:1005A20022D2008F45ED24F9601724FC600F24FE4F
:1005B200600714700E7E03800A7E0280067E018030
:1005C20002E4FEE925E004F90FBF04CA300009EE97
:0A05D20025E025E02545FF227FFF0C
:0105DC0022FC
:1006EB00D3EF9400EE940040147D6F7C00ED1D70F1
:0D06FB00011CED4C70F7EF1F70E61E80E350
:0107080022CE
:0A075E00EFD3940040031F80F72240
:08079E007F017E01DEFEDFFA9F
:0107A6002230
:0B0668000931302E30306B6D2F480040
:1005DD00858B30E4F58BAC3012013E7B337A337969
:1005ED0017784212002E1201728F2FE52F75F064CD
:1005FD0084FF75F00A842430F531EF75F00A84E537
:10060D00F02430F533E52F75F06484E5F075F00ACC
:06061D00842430F53422B4
:0B0673000922202020302E30306D00C6
:03000E00D2AD224E
:10026F00C2A7C2A6D2A612079EC2A630A7FDD2CAA7
:10027F0020A7FDC2CAAFCDEFFEADCC7C00E42DF5BB
:10028F002CEC3EF52BE4F5CCF5CDAC2BAD2C1201BF
:10029F00397B967A43798B783C12002E1201728E3D
:1002AF002D8F2EC3E52C94E8E52B94035005751F75
:1002BF00038003851E1F30010C75282D75272D75A2
:1002CF00252DC20122AE2DAF2E7C007D6412020CB3
:1002DF00EF2430F525AE2DAF2E7C007D6412020C7D
:1002EF007E007F0ACFCDCFCECCCE12020CEF2430C2
:1002FF00F527AE2DAF2E7C007D0A12020CED2430B7
:03030F00F52822AC
:03002B00020006CA
:05000600D201C2CF325F
:10043F004449523A73686F702020004449523A661B
:10044F006F72772020004449523A6261636B20201B
:10045F00004449523A6C6566742020004449523A70
:10046F0072696768742020005346543A5020005335
:10047F0046543A4C20005346543A4D2000534654AC
:0B048F003A4820005346543A46200033
:10031200E4FDFF12073CE51F14601514601A146017
:100322001F1460242404702C7BFF7A04793F801E02
:100332007BFF7A04794A80167BFF7A047955800E16
:100342007BFF7A04796080067BFF7A04796BE4FD97
:10035200FC120623E51D14601514601A14601F14A4
:1003620060242404702C7BFF7A047977801E7BFF43
:100372007A04797E80167BFF7A047985800E7BFF72
:100382007A04798C80067BFF7A047993E4FDFC126F
:1003920006237D01E4FF12073C7B007A007931E4F9
:1003A200FDFC1206237B007A007922E4FDFC0206A2
:0103B2002327
:10067F0030A40730A504E4F51F2220A40720A50409
:10068F00751F022230A40720A504751F032220A482
:08069F000630A503751F0422BB
:10002E00EC4D6011E8497017ED33EC3304600DE4CC
:10003E00FCFFFEFD22E933E8330470F80201DE1204
:10004E0001A958046009E4CC248150062850090205
:10005E0001E82840030201E5C0E0EB4A7044B98094
:10006E0006D0E0FB0201D4EF4E701CBD8008EBFF02
:10007E00EAFEE9FD80EBE98DF0A4FEE5F002011742
:10008E00E9CDF9EAFEEBFFEF89F0A4FCE5F0CE89AD
:10009E00F0A42EFFE435F0CD89F0A42DFEE435F06A
:1000AE008067EF4E7005BD80D780C3EF8BF0A4AC98
:1000BE00F0EE8BF0A42CFCE435F0F8EF8AF0A42CD3
:1000CE00E5F038FCE433CB8DF0A42CFCE5F03BF8E6
:1000DE00EE8AF0A42CFCE5F038F8E433CF89F0A4D6
:1000EE002CFCE5F038CF3400CE89F0A42FFFE5F0DC
:1000FE003EFEE433C98DF0A42EFEE5F039CD8AF034
:10010E00A42FFFE5F03EFEE43DFD33D0E0FB5007AB
:10011E000BBB000F0201E8EC2CFCEF33FFEE33FEBD
:06012E00ED33FD0201C0EB
:1001340075F020800E75F010800575F0087D007E46
:10014400007F003392D530D503120261EC334010A6
:10015400EF33FFEE33FEED33FDEC33FCD5F0ED224F
:0E016400E5F0247EA2D513CC92E7CDCEFF228B
:10017200EDD2E7CD33EC3392D524814006E4FFFE85
:10018200FDFC22FCE4CFCECDCC24E0501174FF80E4
:10019200EDC3CC13CCCD13CDCE13CECF13CF047081
:0701A200F030D5DE0202611E
:1001A900E9D2E7C933E833F892D5EDD2E7CD33EC9C
:0701B90033FC5002B2D52215
:1001C000EC30E7100FBF000C0EBE00080DBD0004A0
:1001D0000BEB6014A2D5EB13FCED92E7FD2274FF4C
:1001E000FCFDFEFF22E480F8A2D574FF13FC7D80A5
:0301F000E480EFB9
:030000000203B345
:0C03B300787FE4F6D8FD7581450203FA5E
:1001F300BB010689828A83E0225002E722BBFE020A
:09020300E32289828A83E493223C
:10020C00BC000BBE0029EF8DF084FFADF022E4CCD6
:10021C00F875F008EF2FFFEE33FEEC33FCEE9DEC9F
:10022C00984005FCEE9DFE0FD5F0E9E4CEFD22EDE5
:10023C00F8F5F0EE8420D21CFEADF075F008EF2F2F
:10024C00FFED33FD4007985006D5F0F222C398FD20
:05025C000FD5F0EA22BD
:0E026100C3E49FFFE49EFEE49DFDE49CFC22AE
:1003BF00020709E493A3F8E493A34003F68001F244
:1003CF0008DFF48029E493A3F85407240CC8C3333F
:1003DF00C4540F4420C8834004F456800146F6DF0E
:1003EF00E4800B0102040810204080900651E47E47
:1003FF00019360BCA3FF543F30E509541FFEE49303
:10040F00A360010ECF54C025E060A840B8E493A3C9
:10041F00FAE493A3F8E493A3C8C582C8CAC583CAF4
:10042F00F0A3C8C582C8CAC583CADFE9DEE780BEAC
:01067E00007B
:00000001FF
