:10009300C0F9A4B0999282F8809040732430191269
:0800A30002780010F9B0F99990
:10000300E50924FE6012146017146026240370337C
:100013007580FF7580FE800E7580FF7580FD8006FC
:100023007580FF7590FBE5099000A693F58005099F
:1000330080117580FF7590F7E5099000A693F58010
:10004300750901E4F50AF50B050BE50B7002050ACA
:09005300B4E8F5E50AB403F0225B
:10005C0075080AE4F580E508602B700575080980C1
:10006C00021508E50890009393F590E4F50AF50B5A
:10007C00C3E50B9430E50A947550DB050BE50B706A
:07008C00EF050A80EB80FE86
:030000000200AB50
:0C00AB00787FE4F6D8FD75810B02005C44
:00000001FF
