:100379001555C0F9A4B0999282F880908883C6A1D6
:10038900868E8CC8AFBFFF03520A3B2D03210B0198
:10039900001032446174653A323031382E31302ED2
:1003A9003239000E4374696D653A30303A30303A6B
:1003B9003030000E24636C6F636B3A30303A303062
:0303C900202000F1
:1003CD0079EFC200E4FF89A0E5A0540FFD640F6032
:1003DD0022D2008F08ED24F9601724FC600F24FE53
:1003ED00600714700E7E03800A7E0280067E0180F7
:1003FD0002E4FEE925E004F90FBF04CA300009EE5E
:0A040D0025E025E02508FF227FFF0F
:0104170022C2
:04046B007F0A7E0086
:10046F00D3EF9400EE940040147D6F7C00ED1D706F
:0D047F00011CED4C70F7EF1F70E61E80E3CE
:01048C00224D
:0A052300EFD3940040031F80F7227D
:1004C700C291C290D2928F807F147E0012046FC2B5
:0404D70092D291220A
:1004DB00C291D290D2928F807F147E0012046FC291
:0404EB0092D29122F6
:1004EF001204AEFF600C1204DB740129F9E43AFA2E
:0304FF0080EE226A
:10050200ED7006EF2480FB8004EF24C0FBAF0302F2
:0205120004C71C
:0F0514007F381204C77F0C1204C77F6C0204C724
:0A052D007F011204C77F020204C719
:10000E007F907E0112046F120514758901758CB1F3
:10001E00758AE0D28CD2AFD2A9D2A8D288E4FDFFE5
:10002E001205027B007A0079320201027D01E4FFA3
:10003E00120502E54214601F146051147003020091
:10004E00CF147003020108240470E11201E47B0056
:10005E007A00794302010220B31212046B30B3FD11
:10006E000552E552D394174003E4F55220B4121210
:10007E00046B30B4FD1552E552D3941740037552FC
:10008E00171201E47B007A007943806820B31212C4
:10009E00046B30B3FD0553E553D3943B4003E4F5B5
:1000AE005320B41212046B30B4FD1553E553D394A0
:1000BE003B400375533B1201E47B007A0079438089
:1000CE003320B31212046B30B3FD0521E521D39416
:1000DE00174003E4F52120B41212046B30B4FD1561
:1000EE0021E521D3941740037521171202FF7B00DF
:1000FE007A0079241204EF02003A20B31212046B34
:10010E0030B3FD0522E522D3943B4003E4F52220D3
:10011E00B41212046B30B4FD1522E522D3943B4089
:10012E000375223B1202FF7B007A0079241204EF42
:03013E0002003A82
:100446000554E554D3943B401BE4F5540553E5535A
:10045600D3943B400FE4F5530552E552D39417402D
:0504660003E4F5522241
:1001E400E54260106402600CE542B4011DE551C3B0
:1001F40094195016E55275F00A842430F548E552F6
:1002040075F00A84E5F02430F549E542B4010DE5C2
:1002140051C394194006754920754820E542601081
:100224006401600CE542B4021DE551C394195016F3
:10023400E55375F00A842430F54BE55375F00A84D0
:10024400E5F02430F54CE542B4020DE551C39419B0
:100254004006754C20754B20E55475F00A84243013
:0F026400F54EE55475F00A84E5F02430F54F228D
:1002FF00E542B40307E551C394194005E542B40440
:10030F0016E52175F00A842430F52AE52175F00AE7
:10031F0084E5F02430F52BE542B4030DE551C39489
:10032F00194006752B20752A20E5426403600CE501
:10033F0042B4041DE551C394195016E52275F00A15
:10034F00842430F52DE52275F00A84E5F02430F58C
:10035F002EE542B4040DE551C394194006752E20C5
:0A036F00752D20753020752F202217
:10014100E55265217055E5536522704FE551C39421
:10015100055002C295E551C394054008E551940A42
:100161005002D295E551C3940A4008E551940F50CD
:1001710002C295E551D3940F4008E5519414500201
:10018100D295E551C394144008E55194195002C227
:1001910095E551C39419404AD29522E5537031E552
:1001A10051C394055002C295E551C394054008E539
:1001B10051940A5002D295E551C3940A4008E55181
:1001C100940F5002C295E551D3940F4015D2952258
:1001D100E551C394055002C295E551C3940540020F
:0301E100D2952292
:03000300020418DC
:10041800C0E0C0D075D000C004C005C006C0071237
:10042800046B20B20C0542E542D3940440037542A4
:0E04380000D007D006D005D004D0D0D0E032DE
:03000B0002048D5F
:10048D00C0E0C0D0758CB1758AE40551120141E50B
:10049D0051C394324006755100120446D0D0D0E0BD
:0104AD00321C
:0300000002027386
:0C027300787FE4F6D8FD7581690202BABC
:1004AE00BB010689828A83E0225002E722BBFE024C
:0904BE00E32289828A83E493227F
:10027F0002000EE493A3F8E493A34003F68001F287
:10028F0008DFF48029E493A3F85407240CC8C33380
:10029F00C4540F4420C8834004F456800146F6DF4F
:1002AF00E4800B0102040810204080900379E47E63
:1002BF00019360BCA3FF543F30E509541FFEE49344
:1002CF00A360010ECF54C025E060A840B8E493A30B
:1002DF00FAE493A3F8E493A3C8C582C8CAC583CA36
:1002EF00F0A3C8C582C8CAC583CADFE9DEE780BEEE
:0103CC000030
:00000001FF
