:0E01AC006C696E79696E67736875616E6700C5
:1000DA001521C0F9A4B0999282F880908883C6A1AC
:1000EA00868E8CC8AFBFFF0E366C696E79696E67F3
:1000FA00736875616E67000D4431373631303130BF
:06010A00323034323900EE
:10008F0079EFC200E4FF89A0E5A0540FFD640F6073
:10009F0022D2008F08ED24F9601724FC600F24FE94
:1000AF00600714700E7E03800A7E0280067E018038
:1000BF0002E4FEE925E004F90FBF04CA300009EE9F
:0A00CF0025E025E02508FF227FFF51
:0100D9002204
:08013900D2928F807F147E003A
:10014100D3EF9400EE940040147D6F7C00ED1D70A0
:0D015100011CED4C70F7EF1F70E61E80E3FF
:01015E00227E
:0A01D200EFD3940040031F80F722D2
:0C01BA00C291C290120139C292D291226F
:0C01C600C291D290120139C292D2912253
:1001780012015FFF600C1201C6740129F9E43AFA12
:0301880080EE22E4
:10018B00ED7006EF2480FB8004EF24C0FBAF03026D
:02019B0001BAA7
:0F019D007F381201BA7F0C1201BA7F6C0201BACF
:0A01DC007F011201BA7F020201BA8E
:1001110012019D1201DC7D027F0112018B7BFF7AAE
:100121000179AC1201787D027F0212018B7B007A8A
:0801310000794412017880FE00
:03000000020003F8
:0C000300787FE4F6D8FD75815002004AB9
:10015F00BB010689828A83E0225002E722BBFE029E
:09016F00E32289828A83E49322D1
:10000F00020111E493A3F8E493A34003F68001F2F5
:10001F0008DFF48029E493A3F85407240CC8C333F2
:10002F00C4540F4420C8834004F456800146F6DFC1
:10003F00E4800B01020408102040809000DAE47E77
:10004F00019360BCA3FF543F30E509541FFEE493B6
:10005F00A360010ECF54C025E060A840B8E493A37D
:10006F00FAE493A3F8E493A3C8C582C8CAC583CAA8
:10007F00F0A3C8C582C8CAC583CADFE9DEE780BE60
:0101100000EE
:00000001FF
