:10013C001508C0F9A4B0999282F880908883C6A162
:07014C00868E8CC8AFBFFFD7
:10008F0079EFC200E4FF89A0E5A0540FFD640F6073
:10009F0022D2008F1DED24F9601724FC600F24FE7F
:1000AF00600714700E7E03800A7E0280067E018038
:1000BF0002E4FEE925E004F90FBF04CA300009EE9F
:0A00CF0025E025E0251DFF227FFF3C
:0100D9002204
:04011A007F0A7E00DA
:10011E00D3EF9400EE940040147D6F7C00ED1D70C3
:0D012E00011CED4C70F7EF1F70E61E80E322
:01013B0022A1
:0A015400EFD3940040031F80F72250
:1000DA00E4FBC29020B71A12011A20B71430B7FDF8
:1000EA0012011AEBC3940950010B74082BF8E6F5B8
:1000FA008020B6E012011A20B6DA30B6FD12011AD3
:10010A00EBD3940040011B74082BF8E6F58080C4F9
:03000000020003F8
:0C000300787FE4F6D8FD75812002004AE9
:10000F000200DAE493A3F8E493A34003F68001F22D
:10001F0008DFF48029E493A3F85407240CC8C333F2
:10002F00C4540F4420C8834004F456800146F6DFC1
:10003F00E4800B010204081020408090013CE47E14
:10004F00019360BCA3FF543F30E509541FFEE493B6
:10005F00A360010ECF54C025E060A840B8E493A37D
:10006F00FAE493A3F8E493A3C8C582C8CAC583CAA8
:10007F00F0A3C8C582C8CAC583CADFE9DEE780BE60
:0101530000AB
:00000001FF
