:10018000C0F9A4B0999282F880908883C6A1868E27
:100165001508C0F9A4B0999282F880908883C6A139
:0A017500868E8CC8AFBFFF011E1478
:1000FC0079EFC200E4FF89A0E5A0540FFD640F6006
:10010C0022D2008F1FED24F9601724FC600F24FE0F
:10011C00600714700E7E03800A7E0280067E0180CA
:10012C0002E4FEE925E004F90FBF04CA300009EE31
:0A013C0025E025E0251FFF227FFFCC
:010146002296
:10014700D3EF9400EE940040147D6F7C00ED1D709A
:0D015700011CED4C70F7EF1F70E61E80E3F9
:010164002278
:0A019000EFD3940040031F80F72214
:10008F00E51ED394004055751D32D291C290E51EE6
:10009F0075F00A84600690018093F5807F0A7E00D8
:1000AF001201477580FFD290C291E51E75F00A8448
:1000BF00E5F090018093F5807F0A7E00120147756D
:1000CF0080FFE51DD3942D4004C2958002D2951573
:1000DF001DE51DD3940050B2151E80A4C291D2907D
:0D00EF00900180E493F580C294C29580FEDC
:03000000020003F8
:0C000300787FE4F6D8FD75812002004AE9
:10000F0002008FE493A3F8E493A34003F68001F278
:10001F0008DFF48029E493A3F85407240CC8C333F2
:10002F00C4540F4420C8834004F456800146F6DFC1
:10003F00E4800B0102040810204080900165E47EEB
:10004F00019360BCA3FF543F30E509541FFEE493B6
:10005F00A360010ECF54C025E060A840B8E493A37D
:10006F00FAE493A3F8E493A3C8C582C8CAC583CAA8
:10007F00F0A3C8C582C8CAC583CADFE9DEE780BE60
:01017F00007F
:00000001FF
