:10000E00758901D2A9D2AFAFB0EF2441601E24E0B2
:10001E00602424F0602A24F8603024FC6036247CAE
:10002E00703CD28C7508FC75094480DBD28C750847
:10003E00FC7509AD80D1D28C7508FD75090A80C793
:10004E00D28C7508FD75093480BDD28C7508FD758E
:10005E00098280B3D28C7508FD7509C880A9C28C3F
:02006E0080A56B
:03000B0002007080
:10007000C083C08285088385098285838C85828AB6
:07008000B295D082D083325B
:0300000002008774
:0C008700787FE4F6D8FD75810902000EB8
:00000001FF
