:1001F8001509C0F9A4B0999282F880908883C6A1A5
:0A020800868E8CC8AFBFFF0108000E
:1001500079EFC200E4FF89A0E5A0540FFD640F60B1
:1001600022D2008F21ED24F9601724FC600F24FEB9
:10017000600714700E7E03800A7E0280067E018076
:1001800002E4FEE925E004F90FBF04CA300009EEDD
:0A01900025E025E02521FF227FFF76
:01019A002242
:0601D400F51E7F647E00B1
:1001DA00D3EF9400EE940040147D6F7C00ED1D7007
:0D01EA00011CED4C70F7EF1F70E61E80E366
:0101F70022E5
:0A021300EFD3940040031F80F72290
:0300030002019B5C
:10019B00C0E0C0D075D000C004C005C006C0077F4A
:1001AB000A7E001201DA30B2FD7F0A7E001201DAFC
:1001BB000508E508D394054003750800D007D00661
:0901CB00D005D004D0D0D0E03200
:06000600C288D2A8D2AFAF
:10000C00E50814603314604C14606614700302002D
:10001C009A1470030200A9240570E5751E7FE4F59F
:10002C001FE51FC3940850D8851EA0E51EC31324DA
:10003C00801201D4051F80E9751EFEE4F51FE51F33
:10004C00C3940850BB851EA0E51E25E0041201D404
:10005C00051F80EA751EFEE4F51FE51FC3940850CA
:10006C009F851EA0E51E25E025E01201D4051F800A
:10007C00E9751EFEE4F51FE51FC394085082851E2A
:10008C00A0E51E1313543F1201D4051F80E975A07F
:10009C00551201D675A0AA1201D602000C75A0E764
:1000AC001201D675A0DB1201D675A0BD1201D67552
:0800BC00A07E1201D602000C27
:030000000200C437
:0C00C400787FE4F6D8FD75812102010B65
:1000D000020006E493A3F8E493A34003F68001F240
:1000E00008DFF48029E493A3F85407240CC8C33331
:1000F000C4540F4420C8834004F456800146F6DF00
:10010000E4800B01020408102040809001F8E47E96
:10011000019360BCA3FF543F30E509541FFEE493F4
:10012000A360010ECF54C025E060A840B8E493A3BB
:10013000FAE493A3F8E493A3C8C582C8CAC583CAE6
:10014000F0A3C8C582C8CAC583CADFE9DEE780BE9E
:0102120000EB
:00000001FF
